S01700004763634170706C69636174696F6E332E7372656359
S11300000C94A7000C94C4000C94C4000C94C40079
S11300100C94C4000C94C4000C94C4000C94C4004C
S11300200C94C4000C94C4000C94C4000C94C4003C
S11300300C94C4000C94C4000C94C4000C94C4002C
S11300400C94C4000C94C4000C94C4000C94C4001C
S11300500C94C40000407A10F35A00A0724E1809A0
S11300600010A5D4E80000E87648170000E40B541B
S1130070020000CA9A3B000000E1F50500008096EA
S11300809800000040420F000000A086010000001C
S1130090102700000000E8030000000064000000D6
S11300A000000A00000000000100000000002C769F
S11300B0D888DC674F0823DFC1DFAE59E1B1B796BA
S11300C0E5E3E453C63AE651997696E8E6C2842617
S11300D0EB898C9B62ED407C6FFCEFBC9C9F40F2F3
S11300E0BAA56FA5F490055A2AF75C936B6CF9676F
S11300F06DC11BFCE0E40D47FEF520E6B500D0ED34
S1130100902E0300943577050080841E080000209B
S11301104E0A000000C80C333333330F986E128339
S11301201141EF8D2114893BE65516CFFEE6DB180D
S1130130D1844B381BF77C1D901DA4BBE4242032D2
S113014084725E228100C9F124ECA1E53D271124CB
S11301501FBECFE5D8E0DEBFCDBF10E0A0E6B0E023
S1130160ECEFF9E102C005900D92AE36B107D9F774
S113017020E0AEE6B0E001C01D92AA3BB207E1F771
S11301800E94A7040C94FC0C0C94000011B880E2AB
S113019080B9089594EA96BF06B607FEFDCF91B1E3
S11301A0987F903171F483B984E886BF06B607FE60
S11301B0FDCF81B1887F803431F0803231F083E02B
S11301C0089580E0089581E0089582E0089584E927
S11301D086BF06B604FCFDCF08951F93CF93DF932B
S11301E0182FC4EAD4E8C6BF06B607FEFDCF81B116
S11301F0887F8830C1F713B9D6BF06B607FEFDCF96
S113020081B1887F883119F00E94E700ECCFDF913B
S1130210CF911F91089583B984E886BF06B607FE7F
S1130220FDCF81B1887F883221F0803321F082E0D4
S1130230089580E0089581E0089584EC86BF06B6B1
S113024007FEFDCF83B1089584E886BF06B607FE96
S1130250FDCF83B108952FE789EA93E021508040D0
S11302609040E1F700C0000080ED0E94ED0089E1BC
S11302700E940B0187E00E940B010E94E70080EDC1
S11302800E94ED008BE60E940B0181E00E940B01AD
S11302900E94E70080ED0E94ED008AE10E940B01BC
S11302A080E00E940B010E94E70080ED0E94ED00B7
S11302B08BE10E940B0180E00E940B010E94E70089
S11302C080ED0E94ED008CE10E940B0180E00E9411
S11302D00B010E94E70080ED0E94ED0088E30E947C
S11302E00B0181E00E940B010E94E700089580ED5C
S11302F00E94ED008BE30E940B0181ED0E94CA0075
S11303000895CF930E9477010E941D01C82F0E9477
S11303101D016C2F70E0762F6627682B072E000CCA
S1130320880B990B0E94A50660938A0070938B003A
S113033080938C0090938D000E941D01C82F0E9411
S11303401D016C2F70E0762F6627682B072E000C9A
S1130350880B990B0E94A50660937E0070937F0022
S113036080938000909381000E941D01C82F0E94F9
S11303701D016C2F70E0762F6627682B072E000C6A
S1130380880B990B0E94A50660936E0070936F0012
S113039080937000909371000E941D01C82F0E94E9
S11303A01D016C2F70E0762F6627682B072E000C3A
S11303B0880B990B0E94A5066093760070937700D2
S11303C080937800909379000E941D01C82F0E94A9
S11303D01D016C2F70E0762F6627682B072E000C0A
S11303E0880B990B0E94A5066093720070937300AA
S11303F080937400909375000E941D01C82F0E9481
S11304001D016C2F70E0762F6627682B072E000CD9
S1130410880B990B0E94A5066093AE007093AF0001
S11304208093B0009093B1000E941D01C82F0E94D8
S113043024016C2F70E0762F6627682B072E000CA2
S1130440880B990B0E94A506609386007093870021
S113045080938800909389000E94E700CF910895CB
S113046020E030E040E858E360918A0070918B000E
S113047080918C0090918D000E94310760939200CE
S113048070939300809394009093950020E030E063
S113049040E858E360917E0070917F008091800075
S11304A0909181000E9431076093960070939700A9
S11304B0809398009093990020E030E040E858E35E
S11304C060916E0070916F00809170009091710046
S11304D00E9431076093A2007093A3008093A4004C
S11304E09093A50020E030E043E053E46091720073
S11304F07091730080917400909175000E94310690
S113050060937A0070937B0080937C0090937D00CD
S113051020E030E043E053E46091AE007091AF001E
S11305208091B0009091B1000E9431066093B200B6
S11305307093B3008093B4009093B50020E030E052
S113054043E053E4609186007091870080918800B5
S1130550909189000E9431066093AA007093AB00C9
S11305608093AC009093AD0008954F925F926F9288
S11305707F928F929F92AF92BF92CF92DF92EF922F
S1130580FF92CF93DF93CDB7DEB72E970FB6F894D3
S1130590DEBF0FBECDBF80ED97E09E878D870E94A2
S11305A081010E9430022091920030919300409189
S11305B09400509195006091A6007091A7008091DD
S11305C0A8009091A9000E94C5052B013C016093ED
S11305D0A6007093A7008093A8009093A90020918F
S11305E09600309197004091980050919900609145
S11305F0B6007091B7008091B8009091B9000E9444
S1130600C5054B015C016093B6007093B7008093FD
S1130610B8009093B90020E030E040E85FE36091D7
S1130620A2007091A3008091A4009091A5000E9463
S1130630C405209182003091830040918400509140
S113064085000E94C5056B017C0160938200709354
S11306508300809384009093850020917A003091E8
S11306607B0040917C0050917D0060919E007091D0
S11306709F008091A0009091A1000E94C50569830C
S11306807A838B839C8360939E0070939F008093F6
S1130690A0009093A1002091B2003091B30040914A
S11306A0B4005091B50060919A0070919B008091C4
S11306B09C0090919D000E94C5056D837E838F836D
S11306C0988760939A0070939B0080939C0090930A
S11306D09D002091AA003091AB004091AC00509154
S11306E0AD0060918E0070918F0080919000909188
S11306F091000E94C50569877A878B879C876093E0
S11307008E0070938F008093900090939100AD853C
S1130710BE851197BE87AD87AB2B09F040CF20E093
S113072030E04AEF54E4C301B2010E943106609301
S1130730A6007093A7008093A8009093A90020E0DE
S113074030E04AEF54E4C501B4010E9431066093DD
S1130750B6007093B7008093B8009093B90020E07E
S113076030E04AEF54E4C701B6010E9431066093B9
S1130770820070938300809384009093850020E02E
S113078030E04AEF54E469817A818B819C810E9434
S1130790310660939E0070939F008093A000909315
S11307A0A10020E030E04AEF54E46D817E818F8126
S11307B098850E94310660939A0070939B00809301
S11307C09C0090939D0020E030E04AEF54E469855A
S11307D07A858B859C850E94310660938E00709388
S11307E08F0080939000909391002E960FB6F8940A
S11307F0DEBF0FBECDBFDF91CF91FF90EF90DF90B2
S1130800CF90BF90AF909F908F907F906F905F90AC
S11308104F9008952091A6003091A7004091A80020
S11308205091A9006091920070919300809194007E
S1130830909195000E94C405609392007093930078
S113084080939400909395002091B6003091B70066
S11308504091B8005091B900609196007091970052
S113086080919800909199000E94C405609396002D
S11308707093970080939800909399002091820040
S11308803091830040918400509185006091A200D2
S11308907091A3008091A4009091A5000E94C405CA
S11308A06093A2007093A3008093A4009093A5008A
S11308B020919E0030919F004091A0005091A10092
S11308C060917A0070917B0080917C0090917D0012
S11308D00E94C40560937A0070937B0080937C002F
S11308E090937D0020919A0030919B0040919C0050
S11308F050919D006091B2007091B3008091B4005A
S11309009091B5000E94C4056093B2007093B30047
S11309108093B4009093B50020918E0030918F00A5
S113092040919000509191006091AA007091AB00A9
S11309308091AC009091AD000E94C4056093AA0020
S11309407093AB008093AC009093AD000895CF9367
S1130950DF93CDB7DEB76E970FB6F894DEBF0FBE48
S1130960CDBF0E94C6000E942B0160E875E280E0C2
S113097090E00E9483050E94B5021ABA812C912C42
S11309807E0185E1E80EF11C0F2EF6E6AF2EF0E0B5
S1130990BF2EF02DCE0101966C010F2EFAE66F2EBC
S11309A0F0E07F2EF02DC89B11C09FEF891A990AA1
S11309B082E0881691042CF080E690E00E94B50550
S11309C00BC083E690E00E94B50506C083E690E084
S11309D00E94B505812C912C0E9481010E94300255
S11309E00E940A0460919200709193008091940097
S11309F090919500870124E045E00E94C007FF9292
S1130A00EF92BF92AF92DF92CF920E94E007C601AD
S1130A100E94B505609196007091970080919800AE
S1130A209091990024E045E00E94C007FF92EF9264
S1130A30BF92AF92DF92CF920E94E007C6010E945C
S1130A40B5056091A2007091A3008091A4009091DB
S1130A50A50024E045E00E94C007FF92EF92BF92F8
S1130A60AF92DF92CF920E94E007C6010E94B505C3
S1130A7060917A0070917B0080917C0090917D0060
S1130A8024E045E00E94C007FF92EF92BF92AF922C
S1130A90DF92CF920E94E007C6010E94B5056091E3
S1130AA0B2007091B3008091B4009091B50024E03D
S1130AB045E00E94C007FF92EF92BF92AF92DF928F
S1130AC0CF920E94E007C6010E94B5056091AA007A
S1130AD07091AB008091AC009091AD0024E045E0B2
S1130AE00E94C007FF92EF927F926F92DF92CF92A3
S1130AF00E94E0070FB6F894DEBF0FBECDBFC6015B
S1130B000E94B50550CF2AB128612AB920B52668BC
S1130B1020BDDC01CB01880F991FAA1FBB1F880FC2
S1130B20991FAA1FBB1F9C01AD01220F331F441F35
S1130B30551F220F331F441F551F60E072E18AE7DF
S1130B4090E00E949E078FEF820F89B9DA01C901F4
S1130B500197A109B109892F9A2FAB2FBB2780BD1B
S1130B6008958CB95D9BFECF0895CF93DF93EC017C
S1130B708881882331F021960E94B10589918111E1
S1130B80FBCFDF91CF9108955058BB27AA270E942D
S1130B90DC050C94F7060E94E90638F00E94F00682
S1130BA020F039F49F3F19F426F40C94E6060EF471
S1130BB0E095E7FB0C94E006E92F0E94080758F340
S1130BC0BA17620773078407950720F079F4A6F52E
S1130BD00C942A070EF4E0950B2EBA2FA02D0B01CE
S1130BE0B90190010C01CA01A0011124FF27591B6E
S1130BF099F0593F50F4503E68F11A16F040A22F74
S1130C00232F342F4427585FF3CF469537952795E4
S1130C10A795F0405395C9F77EF41F16BA0B620BE3
S1130C20730B840BBAF09150A1F0FF0FBB1F661F2A
S1130C30771F881FC2F70EC0BA0F621F731F841F6D
S1130C4048F4879577956795B795F7959E3F08F093
S1130C50B0CF9395880F08F09927EE0F9795879555
S1130C6008950E9445060C94F7060E94F00658F079
S1130C700E94E90640F029F45F3F29F00C94E00655
S1130C8051110C942B070C94E6060E94080768F394
S1130C909923B1F3552391F3951B550BBB27AA2731
S1130CA062177307840738F09F5F5F4F220F331F6B
S1130CB0441FAA1FA9F335D00E2E3AF0E0E832D033
S1130CC091505040E695001CCAF72BD0FE2F29D036
S1130CD0660F771F881FBB1F261737074807AB0708
S1130CE0B0E809F0BB0B802DBF01FF2793585F4F7D
S1130CF03AF09E3F510578F00C94E0060C942B07D3
S1130D005F3FE4F3983ED4F3869577956795B7955E
S1130D10F7959F5FC9F7880F911D9695879597F969
S1130D200895E1E0660F771F881FBB1F62177307E2
S1130D308407BA0720F0621B730B840BBA0BEE1FF7
S1130D4088F7E0950895E89409C097FB3EF49095E0
S1130D508095709561957F4F8F4F9F4F9923A9F090
S1130D60F92F96E9BB279395F6958795779567951F
S1130D70B795F111F8CFFAF4BB0F11F460FF1BC063
S1130D806F5F7F4F8F4F9F4F16C0882311F096E9F6
S1130D9011C0772321F09EE8872F762F05C06623A4
S1130DA071F096E8862F70E060E02AF09A95660F5D
S1130DB0771F881FDAF7880F9695879597F9089516
S1130DC097F99F6780E870E060E008959FEF80ECFA
S1130DD0089500240A94161617061806090608959D
S1130DE000240A9412161306140605060895092E03
S1130DF00394000C11F4882352F0BB0F40F4BF2B72
S1130E0011F460FF04C06F5F7F4F8F4F9F4F0895B1
S1130E1057FD9058440F551F59F05F3F71F04795A7
S1130E20880F97FB991F61F09F3F79F0879508958C
S1130E30121613061406551FF2CF4695F1DF08C0AB
S1130E40161617061806991FF1CF869571056105C8
S1130E5008940895E894BB2766277727CB0197F970
S1130E6008950E9444070C94F7060E94E90638F09E
S1130E700E94F00620F0952311F00C94E0060C94E7
S1130E80E60611240C942B070E94080770F3959F23
S1130E90C1F3950F50E0551F629FF001729FBB276D
S1130EA0F00DB11D639FAA27F00DB11DAA1F649F09
S1130EB06627B00DA11D661F829F2227B00DA11DBC
S1130EC0621F739FB00DA11D621F839FA00D611D42
S1130ED0221F749F3327A00D611D231F849F600D63
S1130EE0211D822F762F6A2F11249F5750409AF08C
S1130EF0F1F088234AF0EE0FFF1FBB1F661F771F18
S1130F00881F91505040A9F79E3F510580F00C94E2
S1130F10E0060C942B075F3FE4F3983ED4F38695E8
S1130F2077956795B795F795E7959F5FC1F7FE2B82
S1130F30880F911D9695879597F90895A1E21A2E29
S1130F40AA1BBB1BFD010DC0AA1FBB1FEE1FFF1F69
S1130F50A217B307E407F50720F0A21BB30BE40BB9
S1130F60F50B661F771F881F991F1A9469F7609500
S1130F707095809590959B01AC01BD01CF010895BA
S1130F80EF920F931F93CF93DF93E80147FD02C0C5
S1130F9034E001C034E1042E000C550B57FF03C0AC
S1130FA0519541955109E32E022F242FAE010E9441
S1130FB0E309CE01DF91CF911F910F91EF90089536
S1130FC0AEE0B0E0E6EEF7E00C94D30C0D891E8998
S1130FD086E08C831A8309838FEF9FE79E838D833A
S1130FE0AE01475E5F4F6F89788DCE0101960E94F6
S1130FF00208EF81F885E00FF11F10822E96E4E0DD
S11310000C94EF0CABE0B0E0E8E0F8E00C94C50C15
S11310106C017B018A01FC0117821682838181FFA6
S1131020CCC1CE0101963C01F6019381F70193FDF9
S1131030859193FF81917F01882309F4BAC1853298
S113104039F493FD859193FF81917F01853229F4D1
S1131050B60190E00E942B0CE7CF912C212C312C6F
S1131060FFE1F315D8F08B3279F038F4803279F05F
S11310708332A1F4232D20611DC08D3261F08033B1
S113108069F4232D216016C0832D8260382EE32D50
S1131090E4603E2E2AC0F32DF8601DC037FC2DC03D
S11310A020ED280F2A3040F08E32B9F436FC81C18D
S11310B0232D2064322E19C036FE06C08AE0989E85
S11310C0200D1124922E11C0EAE02E9E200D112431
S11310D0222EF32DF0623F2E08C08C3621F4832D8E
S11310E08068382E02C0883641F4F70193FD85915B
S11310F093FF81917F018111B3CF982F9F7D9554E8
S1131100933028F40C5F1F4F9FE399830DC08336FF
S113111031F0833771F0833509F059C021C0F801EB
S1131120808189830E5F1F4F88248394912C5301FF
S113113013C02801F2E04F0E511CF801A080B180C9
S113114036FE03C0692D70E002C06FEF7FEFC5016A
S11311500E94200C4C018201F32DFF773F2E16C014
S1131160280122E0420E511CF801A080B18036FE15
S113117003C0692D70E002C06FEF7FEFC5010E94CC
S1131180150C4C01F32DF0683F2E820133FC1BC07B
S1131190822D90E088169906B0F4B60180E290E0C2
S11311A00E942B0C2A94F4CFF50137FC859137FE6D
S11311B081915F01B60190E00E942B0C21102A94CA
S11311C021E0821A91088114910471F7E8C08436F1
S11311D011F0893641F5F80137FE07C0608171814D
S11311E0828193810C5F1F4F08C060817181072E3B
S11311F0000C880B990B0E5F1F4FF32DFF763F2ECB
S113120097FF09C090958095709561957F4F8F4F9A
S11312109F4FF0683F2E2AE030E0A3010E94670C44
S1131220882E861845C0853731F4232D2F7EB22EA3
S11312302AE030E025C0932D997FB92E8F36C1F076
S113124018F4883579F0B5C0803719F0883721F063
S1131250B0C0E92FE061BE2EB4FE0DC0FB2DF460DA
S1131260BF2E09C034FE0AC0292F2660B22E06C044
S113127028E030E005C020E130E002C020E132E0A7
S1131280F801B7FE07C060817181828193810C5F90
S11312901F4F06C06081718180E090E00E5F1F4F98
S11312A0A3010E94670C882E8618FB2DFF773F2E22
S11312B036FE0DC0232D2E7FA22E891458F434FE41
S11312C00BC032FC09C0832D8E7EA82E05C0B82C1D
S11312D0A32C03C0B82C01C0B92CA4FE0FC0FE017E
S11312E0E80DF11D8081803321F49A2D997EA92E79
S11312F009C0A2FE06C0B394B39404C08A2D8678B4
S113130009F0B394A3FC11C0A0FE06C0B21488F483
S1131310280C922C9B180EC0B21460F4B60180E223
S113132090E00E942B0CB394F7CFB21418F42B184E
S113133002C0982C212CA4FE10C0B60180E390E0DA
S11313400E942B0CA2FE17C0A1FC03C088E790E00A
S113135002C088E590E0B6010CC08A2D867859F069
S1131360A1FE02C08BE201C080E2A7FC8DE2B601BF
S113137090E00E942B0C891438F4B60180E390E0CD
S11313800E942B0C9A94F7CF8A94F301E80DF11D77
S11313908081B60190E00E942B0C8110F5CF2220B1
S11313A009F442CEB60180E290E00E942B0C2A940C
S11313B0F6CFF6018681978102C08FEF9FEF2B96BF
S11313C0E2E10C94E10CA9E0B0E0E9EEF9E00C9460
S11313D0CB0C6A01122FB02E2BE3201720F0FF2430
S11313E0F394F00E02C02CE3F22E0F2D27E0AE0191
S11313F04F5F5F4F0E943D0BBC014981842F897070
S1131400813031F0E1FC06C0E0FE06C090E205C088
S11314109DE203C09BE201C090E05E2D507143FF4A
S11314203CC0911102C083E001C084E0811718F42C
S1131430212F281B01C020E051110BC0F601822F7F
S113144030E2882319F031938150FBCFC20ED11CB6
S113145020E0992329F0D6019C93F60131966F017F
S1131460C6010396E2FE0AC03EE4D6013C9341E481
S113147011964C93119712963C9306C03EE6F601E2
S1131480308341E641833283FC01322F40E233232F
S113149009F442C041933150FACF42FF44C0911144
S11314A002C083E001C084E0811718F4212F281BB7
S11314B001C020E051110BC0F601822F30E28823D5
S11314C019F031938150FBCFC20ED11C20E0992337
S11314D029F0D6019C93F60131966F01C60103965B
S11314E0E2FE0BC039E4D6013C933EE411963C93F2
S11314F0119736E412963C9307C039E6F60130831F
S11315003EE6318336E63283FC01322F40E2332358
S113151019F041933150FBCFFC01E20FF11D108211
S11315208EEF9FEFA6C021E030E0911102C020E0D1
S113153030E0161617061CF4FB01319602C0E1E0F8
S1131540F0E02E0F3F1FBB2021F0EB2DF0E0319691
S113155002C0E0E0F0E02E0F3F1FE12FF0E02E1775
S11315603F071CF4121B212F01C020E08E2D88712F
S113157059F4F601822F30E2882319F03193815017
S1131580FBCFC20ED11C20E0992329F0D6019C93F5
S1131590F60131966F0151110BC0F601822F90E3D1
S11315A0882319F091938150FBCFC20ED11C20E007
S11315B00F2D060F9A81342F307144FF03C09133ED
S11315C009F40150101624F4093018F008E001C0A1
S11315D001E0AB0177FF02C040E050E0FB01E41BF7
S11315E0F50BA1E0B0E0AC0FBD1FEA0FFB1F8EE2CC
S11315F0A82E4B01801A91080B2D10E0119501952E
S113160011094F3FBFEF5B0721F4D601AC9211964D
S11316106D01641775072CF08416950614F4818106
S113162001C080E3415051093196D60111967D01E4
S11316304017510724F0D6018C936701E2CF641759
S1131640750739F4963320F4953319F4311101C038
S113165081E3F6018083F701822F90E2882319F059
S113166091938150FBCFF701E20FF11D108280E0CE
S113167090E02996ECE00C94E70C283008F027E081
S11316803327DA01990F311D87FD916000966105BA
S1131690710539F432602E5F3D9330E32A95E1F70A
S11316A008959F3F30F080387105610509F03C5F73
S11316B03C5F3D93913008F08068911DDF93CF9398
S11316C01F930F93FF92EF92192F987F9695E92F0E
S11316D096959695E90FFF27E255FF4F99273327F3
S11316E0EE24FF24A701E70105900894079428F449
S11316F0360FE71EF81E491F511D660F771F881FFE
S1131700991F0694A1F70590079428F4E70EF81E94
S1131710491F561FC11D770F881F991F661F069406
S1131720A1F70590079428F4F80E491F561FC71F08
S1131730D11D880F991F661F771F0694A1F7059086
S1131740079420F4490F561FC71FD81F990F661F0F
S1131750771F881F0694A9F784911095177041F09C
S1131760D695C79557954795F794E7941A95C1F779
S1131770E4E5F0E0689415901591359165919591A3
S113178005907FE27395E118F10A430B560BC90BE0
S1131790D009C0F7E10CF11E431F561FC91FD01D0D
S11317A07EF4703311F48A95E6CFE894015030F05A
S11317B0080F0AF40027021708F4202F2395022F9C
S11317C07A3328F079E37D932A95E9F710C07D9365
S11317D02A9589F6069497956795379517951794E2
S11317E0E118F10A430B560BC90BD00998F0239565
S11317F07E9173957A3308F070E37C932013B8F7E5
S11318007E9170617D9330F0839571E37D9370E3F5
S11318102A95E1F71124EF90FF900F911F91CF913A
S1131820DF91992787FD90950895FC0105906150FB
S113183070400110D8F7809590958E0F9F1F0895E2
S1131840FC016150704001900110D8F7809590958B
S11318508E0F9F1F08950F931F93CF93DF93FB0168
S1131860238121FD03C08FEF9FEF2CC022FF16C000
S113187046815781248135814217530744F4A0815E
S1131880B1819D012F5F3F4F318320838C9326814B
S113189037812F5F3F4F3783268314C08B01EC01C0
S11318A0FB010084F185E02D0995892BE1F6D8012F
S11318B016968D919C911797019617969C938E93EB
S11318C01697CE01DF91CF911F910F910895FA01E0
S11318D0AA27283051F1203181F1E8946F936E7F6B
S11318E06E5F7F4F8F4F9F4FAF4FB1E03ED0B4E05C
S11318F03CD0670F781F891F9A1FA11D680F791F9D
S11319008A1F911DA11D6A0F711D811D911DA11DAD
S113191020D009F468943F912AE0269F11243019BD
S1131920305D3193DEF6CF010895462F4770405D58
S11319304193B3E00FD0C9F7F6CF462F4F70405D07
S11319404A3318F0495D31FD4052419302D0A9F762
S1131950EACFB4E0A6959795879577956795BA955C
S1131960C9F700976105710508959B01AC010A2E22
S113197006945795479537952795BA95C9F7620FF9
S1131980731F841F951FA01D08952F923F924F929D
S11319905F926F927F928F929F92AF92BF92CF92FB
S11319A0DF92EF92FF920F931F93CF93DF93CDB704
S11319B0DEB7CA1BDB0B0FB6F894DEBF0FBECDBF7C
S11319C009942A88398848885F846E847D848C844D
S11319D09B84AA84B984C884DF80EE80FD800C8156
S11319E01B81AA81B981CE0FD11D0FB6F894DEBF39
S10F19F00FBECDBFED010895F894FFCFA9
S11119FC312C00302C0025732C0025730A00BA
S9030000FC
